:02000002D0002C
:1040000000400D00B07C0D00000006000E00050110
:08401000040179050000000025
:04401800886E0D00A1
:10401C0009480A49884208B505D0094A824202D0AB
:10402C00121A02F0C6FE0748074A0021121A02F0C3
:10403C00CBFE014808BD00BF28E0032010780D001E
:10404C00A0E40320A0E40320F0E7032070B502F005
:10405C0059FC074C074BE41AA40800251E46A54240
:10406C0004D056F8253098470135F8E770BD00BFED
:10407C0004780D00C4770D0000F06EB808B500F0A0
:10408C00E5F8BDE8084002F00BBC01F00BB901F0FB
:10409C0009B901F00FB901F00DB9000008B5034AD8
:1040AC0000210C2001F068F8FEE700BFF54D0D0073
:1040BC000078B0FA80F04009704701230370704714
:1040CC007047000037B50C46054602F09DFB074AC9
:1040DC00002C18BF224600922B46054A012101F004
:1040EC005BFE044B1C6003B030BD00BF9C6E0D002A
:1040FC00A16E0D00C8E4032038B5144C05462046CB
:10410C0000F008FE2046022100F082FA0A22204626
:10411C00002100F07AFA0E49204601F00CFE1C2218
:10412C002046002100F071FA0A49204601F003FEF6
:10413C0020463022002100F068FA2946204601F082
:10414C00FAFD2046BDE8384000F06EBDA4E4032023
:10415C00B26E0D00E96E0D0010B502F055FB314C3E
:10416C004FF4165102F044FB02F04EFB2E4901F0C5
:10417C00D8FD3C220221204600F086FC204600F0AF
:10418C00C9FD2046012100F048FA2046022100F02A
:10419C003FFA0A222046002100F037FA2349204634
:1041AC0001F0C9FD23222046002100F02EFA2049FF
:1041BC00204601F0C0FD204600F036FD40F6B83038
:1041CC0001F090F8204600F0A5FD204600F02CFDF3
:1041DC002046022100F01CFA0A222046002100F0A1
:1041EC0014FA1449204601F0A6FD1C222046002199
:1041FC0000F00BFA1049204601F09DFD32222046BA
:10420C00002100F002FA0D49204601F094FD2046F1
:10421C0000F00AFD0A4A0B490B48BDE8104001F0BA
:10422C0063BC00BFA4E40320BD6E0D00D56E0D0071
:10423C00DA6E0D00B26E0D00E96E0D00E26E0D002F
:10424C00D1400D00E76E0D00E4E4032008B500F04A
:10425C007BFD034B1868BDE80840FFF74DBF00BF5E
:10426C00C8E4032010B52421044602F01EFC2046AD
:10427C0010BD000010B5074C00F0C6FD4FF0FF312B
:10428C00204600F0A9FB2046034A0449BDE8104033
:10429C0002F006BCA4E40320A0E40320CD400D00F2
:1042AC002DE9F04F85B01E46BDF93830BDF83CA065
:1042BC0015469A1A002AB8BF52420092721A002A66
:1042CC00B8BF524201920C46009A01998A4281462B
:1042DC0005DD32461E46134622462C461546B44290
:1042EC0005DD2A461D4613462246344616465A1B01
:1042FC00002AB8BF5242C4EB06089D42B4BF01234A
:10430C004FF0FF331FFA88F8029303920FFA88F7E5
:10431C00022297FBF2F7B4421FDC019A009B9342F6
:10432C00D9F80030C8BF2246D3F810B0C8BF294610
:10433C005346DCBF2A4621464846D847039BFF1A02
:10434C00BBB21FB2002F05DA029A08EB0307154423
:10435C002DB23FB2013424B2DDE705B0BDE8F08FD9
:10436C002DE9F347BDF82C600768BDF928A000962D
:10437C000446FF6991460D469846B8472368009657
:10438C000AF1FF324A44DF6929464346204612B2FD
:10439C00B847236800969F694A46534629462046EB
:1043AC00B84723680A9608F1FF3129449D694A46AB
:1043BC00534609B22046AC4602B0BDE8F047604710
:1043CC0037B5013B13440468BDF8185001951BB276
:1043DC00009364690B46A04703B030BD37B5BDF8F8
:1043EC00185004688DE82400013B0B4464691BB22F
:1043FC00A04703B030BD2DE9F347BDF92880BDF8C7
:10440C002C90054617460C4601EB030A54450BDA73
:10441C002B68CDF800909E69214643463A462846C3
:10442C000134B04724B2F1E702B0BDE8F08713B510
:10443C00B0F90E200468019100920022B0F90C3002
:10444C00646A1146A04702B010BD704730B50181B7
:10445C000024084D42818181C2814FF6FF710122F7
:10446C00446005604476048244820276C182818273
:10447C00827630BDFC6E0D002DE9F04F8FB00546F5
:10448C000691BDF860100791BDF864100891B0F961
:10449C000C1006989DF8688081427CDDB5F90E10F1
:1044AC00914278DD062111FB0800002873DD02EB38
:1044BC00C80000286FDD03EB830396B20C9306F162
:1044CC0008039BB2099100240D93052C1CBF334BA0
:1044DC000C9A059616BF1B194FF0000913F80290A1
:1044EC0004961FFA88F30393039ABDF8183004FB63
:1044FC00023213FA84F312B21BB20A9237460FFA45
:10450C0088FA0B9319F0010F11D0B8F1010F2B6839
:10451C0003D1D3F810B0079B14E0079A0192CDF8A1
:10452C0000A0D3F824B0BDF91020534618E0079B27
:10453C00089A934217D0B8F1010F2B6807D1D3F822
:10454C0010B013463AB20B992846D8470BE0089A9C
:10455C000192CDF800A0BDF91420D3F824B0534635
:10456C000A992846D847049B039A13449BB2049398
:10457C00059B13449BB2013705930D9BBFB29F4221
:10458C004FEA5909BED1099B013B013413F0FF03DB
:10459C0064B2099399D10FB0BDE8F08F2C6F0D0068
:1045AC0030B50A2985B004460B4604D1027E438AF5
:1045BC0003EBC20323E00D2924D0057EB0F91220B1
:1045CC00B0F910100295C58A0195858A0095FFF700
:1045DC0053FF227E238A91B201EB410003EB40038F
:1045EC00A07E1BB2238268B1B4F90C006FF00505F4
:1045FC0005FB0202934205DD638A03EBC103638270
:10460C0000232382012005B030BD01824282704715
:10461C00002908BF012101767047C1828182704751
:10462C00407E7047B0F90C007047B0F90E0070472F
:10463C0000F0EABBF0B5447EBDF81450022C08D053
:10464C00032C0FD0012C70D10489013CA21A12B298
:10465C000CE04489013CA21A0489E41A611A12B2D2
:10466C0009B262E04489E41A611A09B2002A5BDBE0
:10467C00B0F90840944240F390800029BEBF5B180B
:10468C001BB20021B0F90A00CC188442C4BF431AF3
:10469C001BB2002B40F38180C9B2C8083F4F02EB1C
:1046AC00C01211F00701DBB207EB020417D0C1F105
:1046BC000801C8B23A4983420E5C3FBFC3EB000EFF
:1046CC00FF2141FA0EF10E40B95C012D0CBF3143B4
:1046DC00B1438342B95460D3181AC3B28034072B48
:1046EC0017D9012D0CBFFF20002004F180011A46C0
:1046FC00083AD2B2072A01F8800C01F18001F7D8F0
:10470C00A3F10802C2F3C402013204EBC21403F099
:10471C000703002B41D0234AD25C2378012D0CBF18
:10472C00134393432370F0BDF0BD002A35DBB0F981
:10473C000A40944231DD0029BCBFC9180BB2B0F954
:10474C000870B8BF0021CE18BE42C4BF631A1BB29A
:10475C00002B22DDD01001EBC011104802F0070233
:10476C000144012000FA02F28542D2B209D1013B88
:10477C001BB25C1C11D011F8010B104301F8010C99
:10478C00F5E7D243D2B2013B1BB2581C05D011F84D
:10479C00010B104001F8010CF5E7F0BD38E00320E7
:1047AC0030E0032028E00320F0B5447EBDF814501F
:1047BC00022C08D0032C0FD0012C12D10489E41A3E
:1047CC00A21A12B26DE00489013C611A4489E41A00
:1047DC00A21A09B212B204E04489013C611A09B26E
:1047EC005FE000295CDBB0F908408C4240F391801B
:1047FC00002ABCBFD21813B2B0F90A00B8BF00220D
:10480C00D4188442C4BF831A1BB2002B40F381809E
:10481C00D4B2404EDAB2E30801EBC31114F0070432
:10482C0006EB010317D0C4F10804E0B23A4C824203
:10483C00275C3FBFC2EB000EFF2444FA0EF4274066
:10484C00745C012D0CBF3C43BC438242745460D356
:10485C00101AC2B28033072A17D9012D0CBFFF24BE
:10486C00002403F1800011460839C9B2072900F869
:10487C00804C00F18000F7D8A2F10801C1F3C4010B
:10488C00013103EBC11302F00702002A41D0234986
:10489C00895C1A78012D0CBF0A438A431A70F0BD4B
:1048AC00F0BD002935DBB0F90A408C4231DD002A1D
:1048BC00BCBFD21813B2B0F90870B8BF0022D6181A
:1048CC00BE42C4BFA31A1BB2002B22DDC81002EBE0
:1048DC00C012104801F007011044012202FA01F144
:1048EC009542C9B209D15A1E13B25C1C11D010F8F2
:1048FC00012B0A4300F8012CF5E7C943C9B25A1E33
:10490C0013B25A1C05D010F8012B0A4000F8012CE8
:10491C00F5E7F0BD38E0032030E0032028E0032069
:10492C0010B42AB1194606485DF8044B01F004BBDB
:10493C000122C9B2C0B25DF8044B02F04BB800BF03
:10494C002CE70320F8B50D1E064614461F463FDB28
:10495C00FFF768FE85423BDA002C39DB3046FFF767
:10496C0064FE844234DA3046FFF75AFE022827D11F
:10497C003189708901390138491B001B0DB204B211
:10498C0006E0012804D13389013B1B1B2C461DB2C8
:10499C000820012F94FBF0F000B20E4B04F007023C
:1049AC0005EBC01104D197405A5C17435F54F8BD16
:1049BC00585C012707FA02F220EA02025A54F8BDA9
:1049CC000328DED17389013B5B1B25461CB2DFE754
:1049DC00F8BD00BF38E0032038B5402204460D4630
:1049EC008021FFF733FD064B2360FF23637784F8A8
:1049FC002130E377A37784F82050204638BD00BFE0
:104A0C0030740D0038B590F91D30013304460D4655
:104A1C0022D090F92100012180B201F0C2FF94F95B
:104A2C001F00002180B201F0BCFF94F9210000218D
:104A3C0080B201F0B6FF94F91E1094F91D0094F8A1
:104A4C0022202B46FFF76CFF94F92100012180B244
:104A5C00BDE8384001F0A5BF01F0E0FF94F91B1050
:104A6C0000F0DCFC01F0DAFF036800219B6898473A
:104A7C0001F0D4FF036829469B68984701F0CEFFEC
:104A8C00BDE8384000F0D1BC38B504460D4621775E
:104A9C0090F91D30C276013333D090F91F000121FB
:104AAC0080B201F06DFF94F92100012180B201F078
:104ABC0067FF94F822305BB994F91D00012180B294
:104ACC0001F05EFF94F91E00012180B201F058FF45
:104ADC0094F82230CBB194F92100012180B201F07D
:104AEC0060FF01214F4801F0C6F910214D4801F03B
:104AFC000FFA00214B4801F0C1F94A4801F0B6F910
:104B0C0003E001F08BFF00F07FFC94F92000012101
:104B1C0080B201F035FF94F92000012180B201F040
:104B2C0040FF012000F0DEFB94F92000002180B250
:104B3C0001F037FF0A2000F0D5FB94F92000012189
:104B4C0080B201F02EFF2046AE21FFF75BFF20461E
:104B5C00D521FFF757FF20468021FFF753FF204652
:104B6C00A821FFF74FFF20463F21FFF74BFF2046C0
:104B7C00D321FFF747FF20460021FFF743FF2046D4
:104B8C004021FFF73FFF8D212046FFF73BFF012D12
:104B9C000CBF102114212046FFF734FF20462021A2
:104BAC00FFF730FF20460021FFF72CFF2046A12104
:104BBC00FFF728FF2046C821FFF724FF2046DA2103
:104BCC00FFF720FF20461221FFF71CFF8121204612
:104BDC00FFF718FF012D0CBF9F21CF212046FFF7B7
:104BEC0011FFD9212046FFF70DFF012D0CBF22210B
:104BFC00F1212046FFF706FF2046DB21FFF702FFDD
:104C0C0020464021FFF7FEFE2046A421FFF7FAFEC6
:104C1C002046A621FFF7F6FE2046AF21BDE838401E
:104C2C00FFF7F0BE2CE703202DE9F04121210446CB
:104C3C00FFF7E8FE00212046FFF7E4FE7F21204627
:104C4C00FFF7E0FE22212046FFF7DCFE0021204684
:104C5C00FFF7D8FE07212046FFF7D4FE94F91D304C
:104C6C00DFF8AC8001332ED094F92100012180B201
:104C7C0001F097FE94F91F00012180B201F091FE22
:104C8C0094F92100002180B201F08BFE012000F08C
:104C9C00ABF8002518F8053094F8222094F91E1072
:104CAC0094F91D000135FFF73BFEB5F5806FF1D18E
:104CBC00012000F099F894F92100012180B2BDE89F
:104CCC00F04101F06EBE002501F0A8FE94F91B1016
:104CDC0000F0A4FB01F0A2FE036840219B689847FA
:104CEC00002601F09BFEAF190368BFB29B6818F851
:104CFC00071001369847102EF3D1103501F08EFEB7
:104D0C00ADB200F092FBB5F5806FDDD1BDE8F0815E
:104D1C0038E003204FF480620021014802F054B8BF
:104D2C0038E0032000F070B808B5024B1B685B68D4
:104D3C00019308BD4802030008B5024B1B689B6831
:104D4C00019308BD4802030008B5024B1B68DB68E1
:104D5C00019308BD4802030008B5024B1B681B6990
:104D6C00019308BD4802030008B5024B1B685B6940
:104D7C00019308BD4802030008B5024B1B681B6B6E
:104D8C00019308BD4802030008B5024B1B685B6C1D
:104D9C00019308BD4802030008B5024B1B68DB6C8D
:104DAC00019308BD4802030008B5024B1B685B6DFC
:104DBC00019308BD4802030008B5024B1B68DB6E6B
:104DCC00019308BD4802030008B5024B1B685B68E1
:104DDC00019308BD1802030008B5024B1B689B68C1
:104DEC00019308BD1802030008B5024B1B68DB6871
:104DFC00019308BD1802030008B5024B1B685B69E0
:104E0C00019308BD1802030008B5024B1B681B6810
:104E1C00019308BD2C02030008B5024B1B689B686C
:104E2C00019308BD2C02030008B5024B1B68DB681C
:104E3C00019308BD2C02030008B5024B1B681B69CB
:104E4C00019308BD2C02030008B5024B1B68DB68FC
:104E5C00019308BD2802030008B5024B1B689B692F
:104E6C00019308BD2802030008B5024B1B68DB69DF
:104E7C00019308BD2802030008B5024B1B681B6A8E
:104E8C00019308BD2802030008B5024B1B685B6A3E
:104E9C00019308BD2802030008B5024B1B689B6AEE
:104EAC00019308BD2802030008B5024B1B68DB6A9E
:104EBC00019308BD2802030008B5024B1B681B6B4D
:104ECC00019308BD2802030008B5024B1B685B6BFD
:104EDC00019308BD2802030008B5024B1B681B6C2C
:104EEC00019308BD2802030008B5024B1B681B691F
:104EFC00019308BD6C02030008B5024B1B685B698B
:104F0C00019308BD6C02030008B5024B1B689B693A
:104F1C00019308BD6C02030008B5024B1B685B6D66
:104F2C00019308BD6C02030008B5024B1B689B6D16
:104F3C00019308BD6C02030008B5024B1B685B694A
:104F4C00019308BD6402030008B5024B1B689B6902
:104F5C00019308BD6402030008B5024B1B681B6A71
:104F6C00019308BD6402030008B5024B1B685B6A21
:104F7C00019308BD6402030008B5024B1B689B6AD1
:104F8C00019308BD6402030008B5024B1B689B68C3
:104F9C00019308BD6802030008B5024B1B68DB686F
:104FAC00019308BD6802030008B5024B1B685B68DF
:104FBC00019308BD3802030008B5024B1B689B69BE
:104FCC00019308BD3802030008B5024B1B68DB696E
:104FDC00019308BD3802030008B5024B1B68DB6A5D
:104FEC00019308BD3802030008B5024B1B685B6BCC
:104FFC00019308BD3802030008B5024B1B689B6B7C
:10500C00019308BD3802030008B5024B1B681B68EE
:10501C00019308BD3002030008B5024B1B689B6866
:10502C00019308BD3002030008B5024B1B68DB6816
:10503C00019308BD3002030008B5024B1B681B69C5
:10504C00019308BD3002030008B5024B1B685B6975
:10505C00019308BD3002030008B5024B1B68DB69E5
:10506C00019308BD3002030008B5024B1B681B6A94
:10507C00019308BD3002030008B5024B1B685B6A44
:10508C00019308BD3002030008B5024B1B681B6876
:10509C00019308BD3C02030008B5024B1B68DB689A
:1050AC00019308BD3C02030008B5024B1B681B6949
:1050BC00019308BD3C02030008B5024B1B685B69F9
:1050CC00019308BD3C02030008B5024B1B689B69A9
:1050DC00019308BD3C02030008B5024B1B68DB6959
:1050EC00019308BD3C02030008B5024B1B681B6A08
:1050FC00019308BD3C02030008B5024B1B689B6A78
:10510C00019308BD3C02030008B5024B1B681B68E9
:10511C00019308BD4C02030008B5024B1B685B6889
:10512C00019308BD4C02030008B5024B1B681B69B8
:10513C00019308BD4C02030008B5024B1B685B6968
:10514C00019308BD4C02030008B5024B1B689B6918
:10515C00019308BD4C02030008B5024B1B68DB69C8
:10516C00019308BD4C02030008B5024B1B681B6A77
:10517C00019308BD4C02030008B5024B1B685B6B26
:10518C00019308BD6002030008B5024B1B681B6D40
:10519C00019308BD6002030008B5024B1B685B68F5
:1051AC00019308BD2002030008B5024B1B685B6924
:1051BC00019308BD2002030008B5034B1B68D3F80C
:1051CC008830019308BD00002002030008B5034B92
:1051DC001B68D3F89430019308BD00002002030033
:1051EC0008B5034B1B68D3F8A430019308BD00002D
:1051FC002002030008B5024B1B68DB6B019308BD52
:10520C004402030008B5024B1B685B68019308BDA0
:10521C004002030008B5024B1B689B68019308BD54
:10522C004002030008B5024B1B68DB68019308BD04
:10523C004002030008B5024B1B681B69019308BDB3
:10524C004002030008B5024B1B685B69019308BD63
:10525C004002030008B5024B1B689B69019308BD13
:10526C004002030008B5024B1B68DB69019308BDC3
:10527C004002030008B5024B1B681B6A019308BD72
:10528C004002030008B5024B1B681B6B019308BD61
:10529C004002030008B5024B1B685B6B019308BD11
:1052AC004002030008B5024B1B681B68019308BD44
:1052BC001C02030008B5024B1B685B68019308BD18
:1052CC001C02030008B5024B1B685B6A019308BD06
:1052DC001C02030008B5024B1B68DB6A019308BD76
:1052EC001C0203000021FFF75FBF000002480023EF
:1052FC000360FFF749BD00BFCCE4032010B5836801
:10530C00044613B1032201469847204610BD0022E3
:10531C0011464068FFF7AEBF002211464068FFF708
:10532C00B9BF00224068FFF7ADBF002281F0010138
:10533C004068FFF797BF00231A4619464068FFF7ED
:10534C0089BF00231A4619464068FFF77BBF00222D
:10535C0011464068FFF76EBF002211464068FFF708
:10536C0059BF002202214068FFF75CBF00231A4698
:10537C004068FFF747BF0000024B03225A60024A05
:10538C001A607047D0E4032068740D007047F8B5BC
:10539C00064615460C468F18BC4206D0336814F8E6
:1053AC00011B9B6830469847F6E72846F8BD00225B
:1053BC00007CFFF761BD0021007CFFF765BD00217B
:1053CC00007CFFF769BD0021007CFFF76DBD00215B
:1053DC00007CFFF771BD10B51421044601F065FB8C
:1053EC00204610BD10B504464FF47A730846A360EE
:1053FC000021044B207461602360FFF76DFD204693
:10540C0010BD00BF9C740D0000231A461946007C89
:10541C00FFF71ABD0022007CFFF71EBDC9B2FFF7D3
:10542C00F9BF0022007CFFF71FBD0121FFF7F9BF78
:10543C000021007CFFF748BD704710B518210446C9
:10544C0001F033FB204610BDF0B5037D062B8DB06B
:10545C000E4600F104074FF0000402D000F10805DD
:10546C0018E00CAD394605F8304D2F232A460A209A
:10547C00FFF762FD284601F0D7FC33680246DB6873
:10548C002946304698470FE024B12E21304600F0D3
:10549C0039FC044415F8011D0A22304600F07AFC50
:1054AC00BD420444F0D120460DB0F0BD10B5054B03
:1054BC000446112240F8043B002101F085FC2046F3
:1054CC0010BD00BFC4740D000346074A10B543F865
:1054DC00042B01F1100251F8044B43F8044B914298
:1054EC00F9D10A781A7010BDC4740D00037D042B19
:1054FC0001D1406808E0062B0AD1436853B9836890
:10550C0043B9C36833B90069003018BF0120704734
:10551C00002070470120704710B59DF8084044EA00
:10552C00032343EA024242EA01610423416003750A
:10553C0010BD37B50D788B784A78C978009129461B
:10554C00FFF7EAFF03B030BD0068FFF725BC000091
:10555C00014B024A1A607047D8E4032043750D00D2
:10556C0010B501230374836804460BB1C06806E0D0
:10557C00006828B183680BB901F0B3FAC368984787
:10558C00012363740020BDE81040FFF715BC002216
:10559C0011464068FFF76EBE002211464068FFF7C7
:1055AC0079BE00224068FFF76DBE002281F0010138
:1055BC004068FFF757BE00231A4601214068FFF7E9
:1055CC0049BE00231A4619464068FFF73BBE00222D
:1055DC0011464068FFF72EBE002211464068FFF7C7
:1055EC0019BE002202214068FFF71CBE00231A4698
:1055FC004068FFF707BE38B5054688B104684CB162
:10560C00A3681BB10322214620469847102120464F
:10561C0001F04BFA28461421BDE8384001F045BA98
:10562C0038BD10B103685B681847704710B5036844
:10563C000446BBB15868FFF77FFB78B923685A7CE6
:10564C0012B95868FFF788FB23685868FFF78CFB82
:10565C0020680023236028B1FFF7CDFF206808B134
:10566C00FFF7C9FF204610BD38B50C4B036004464C
:10567C00D0F8CC0108B1FEF70EFDD4F8C45135B109
:10568C002846FFF7D3FF0421284601F00EFAA06844
:10569C0008B1FFF7C6FF204638BD00BFB8750D0036
:1056AC002DE9F84F0B9F9DF828B006468846914689
:1056BC009A4604460025236C4B4529D1636C53450F
:1056CC0026D194F848305B4522D14021404601F068
:1056DC00C8FB41460246204601F0AEFBC0B96FB193
:1056EC000C21384601F0BDFB024638B1582303FBB0
:1056FC0005603946493001F09FFB04E0582000FB5F
:10570C00056595F84900B0FA80F04009BDE8F88FBE
:10571C000135052D04F15804CDD10020BDE8F88FDA
:10572C002DE9F04F85B007469DF838A00F9E0196E5
:10573C00CDF800A0894602920393FFF7B1FF002831
:10574C003CD10446582303FB0475D5F84080B8F1CE
:10575C00000F2ED14021484601F083FB4946834679
:10576C000246284601F025FBCBF14002414605EBF1
:10577C000B0001F029FB029B2B64039B6B6485F8E7
:10578C0049802EB10C21304601F06BFB054600E040
:10579C0035465820444338193C442A463146493052
:1057AC00254401F006FB002085F8490084F848A048
:1057BC0005E00134052CC6D1024800E0002005B0FC
:1057CC00BDE8F08FFCFEFFFF07B5002301930093AB
:1057DC00FFF7A6FF03B05DF804FB2DE9F341044687
:1057EC0008460D46904601F01FFB04F5DC76074693
:1057FC00236CABB14021204601F033FB87420246BB
:10580C000BD32946204601F0C5FA30B90090434627
:10581C002A4621465820FFF7E3FC5834B442E7D11E
:10582C0002B0BDE8F081000030B58DB00446112205
:10583C00002101A801F0C8FA062301AA09498DF834
:10584C0014300A20FFF780FB07AD01A906A8FFF76B
:10585C003BFE0FCD04340FC42B68237000200DB019
:10586C0030BD00BFE4750D002DE9F041054600F593
:10587C00E0768AB03046FFF767FE2C68D5F8C00199
:10588C00FFF792FA002C63D0D5F8C43163B12368CA
:10589C00D5F8C4111F6B20464FF47A734FF49A62FB
:1058AC00B847041E13DC56E02D494FF49A6001F002
:1058BC0016F9D5F8C431C5F8C40113B11846FEF772
:1058CC00EAFBD5F8C431002BE1D1264844E0202373
:1058DC00254A029300920023019402AA23490393C0
:1058EC000120FFF751FCD5F8C4315F1C1B786BBB52
:1058FC00013C2146384601F0B4FA38B3241A002C86
:10590C0007EB000822DD3B5C03BB013C0ED008F129
:10591C0001082146404601F0A4FA241A002C15DD9A
:10592C0018F8003093B9012C02D00FE0DFF8448056
:10593C003046FFF709FE42463946281DFFF74DFF5A
:10594C00D5F8C001FFF730FA002005E0084803E065
:10595C006420FFF741FA20460AB0BDE8F08100BF91
:10596C005C770D00FCFEFFFFF8750D00F1750D0066
:10597C00E8FEFFFF74750D0010B50446BFF35F8F92
:10598C0094F8C831BFF35F8F1BB92046FFF76CFF4B
:10599C00F4E710BD10B50468016044B12046FFF770
:1059AC0045FE20460421BDE8104001F07EB810BD34
:1059BC002DE9F04105468AB000F5E070FFF7C4FD13
:1059CC002C68002C7BD14C20FEF75FFB0646002890
:1059DC0073D000F073FD22464FF49A61304600F00C
:1059EC009DFD0AA93A4801F8194DFFF77DFA336875
:1059FC009DF80F201B6A49F269013046984704A8AC
:105A0C00FFF754FD04A8FFF70FFF00284ADB04A999
:105A1C00304600F0EFFD002844DBBFF35F8F85F8C4
:105A2C00C841BFF35F8F2B49042001F049F805F5FD
:105A3C00DE78074648B32749142001F041F828B115
:105A4C000474046044608460C46044743860B0B111
:105A5C00214B83603B682149DD6038684FF440631B
:105A6C008DE8090003221E4B0430FFF75DF930B9B5
:105A7C003B681B7C4BB90120FFF7AEF9F8E738689F
:105A8C0000233B6008B1FFF7B6FD39464046FFF7EF
:105A9C0081FFD5F8BC313BB128682E6030B1FFF7DF
:105AAC00C0FD0CE0044603E00E4C01E0044607E0A8
:105ABC0036B13046FFF7B5FD02E00A4C00E0002499
:105ACC00D5F8C001FFF770F920460AB0BDE8F081A7
:105ADC0008760D005C770D0085590D000C760D00D5
:105AEC006D550D00FCFEFFFFF8B5054600F5E070A6
:105AFC000E461746FFF728FD2846FFF759FF0028EA
:105B0C0007DB3A463146281DFFF75EFE00EAE074DB
:105B1C0000E00446D5F8C001FFF746F92046F8BD71
:105B2C0038B50E4C0E4B23600025022304F5E470AF
:105B3C006360A560C4F8C451C4F8C851FFF724F9D8
:105B4C00084BC4F8CC5184F8D05123602046064A47
:105B5C000649BDE8384000F0A3BF00BFDCE40320D9
:105B6C001C760D00B8750D00A0E4032075560D00D1
:105B7C0000231A464068FFF745BB0022022140680B
:105B8C00FFF750BB002211464068FFF743BB0022D1
:105B9C0011464068FFF74EBB00231A461946406871
:105BAC00FFF750BB00231A4619464068FFF752BB5B
:105BBC00002281F001014068FFF754BB00224068CD
:105BCC00FFF760BB002211464068FFF763BB002261
:105BDC0011464068FFF74EBB2DE9F043002495B009
:105BEC0016460D460746FFF761FC214620220CA8FD
:105BFC00009401F0E9F840230C9321466B460CAA63
:105C0C003046FFF7C9F90446002844D10246012169
:105C1C006868FFF70FFB0221804622466868FFF791
:105C2C0009FB009E81462146002E34D0002932D13A
:105C3C007368022B02D00A2B09D02AE0B8F1000FAE
:105C4C0027D0716938460431FFF773FC20E0B9F1B5
:105C5C00000F1ED07469112201A801F0B5F80623BB
:105C6C008DF8143001AD04F1080318341868596824
:105C7C002A4603C20833A3421546F7D101A906A848
:105C8C0007ADFFF721FC0FCD3C1D0FC42B68237013
:105C9C000121F669C8E70098FFF776F9384615B088
:105CAC00BDE8F083024B034A1A6000225A60704729
:105CBC00B0E603201C760D00F8B506460D468F188D
:105CCC000024BD420CD0336815F8011B9B6830468C
:105CDC009847002801DB0444F3E7002C08BF044676
:105CEC002046F8BD70B505460C46084649B101F092
:105CFC009BF82B68024621462846DB68BDE87040BD
:105D0C00184770BD03689B68184738B50D210546C8
:105D1C00FFF7F8FF0A2104462846FFF7F3FF20445B
:105D2C0038BD38B50546FFF7DDFF04462846FFF7BA
:105D3C00ECFF204438BDFFF7F4BF30B58BB00B46F9
:105D4C0000218DF82410012A98BF0A220DF123049A
:105D5C00B3FBF2F505FB123303F0FF03092B94BFE1
:105D6C0030333733DBB2214604F801392B46002D92
:105D7C00EED1FFF7B7FF0BB030BD10B42AB90368F2
:105D8C005DF8044B9B68C9B21847D2B25DF8044B5E
:105D9C00FFF7D3BFFFF7F1BF0CB42DE9F04387B089
:105DAC0000AF07F13804054654F8049B3C600E46DE
:105DBC0023464A461421381DFFF784FA132805D8C8
:105DCC00391D2846FFF78EFF044613E000F1080347
:105DDC0023F00703E846ADEB030D411C23464A466E
:105DEC0068463C60FFF76EFA69462846FFF77AFF73
:105DFC000446C5461EB12846FFF787FF04442046DB
:105E0C001C37BD46BDE8F04302B0704710B50446E0
:105E1C00FFF774FA204610BD0348044A04490023D6
:105E2C00836000F03DBE00BFB8E60320A0E4032071
:105E3C00195E0D00704710B51021044600F035FEB8
:105E4C00204610BD70B5084B0360044600250E4675
:105E5C0040F80C5FFEF790FF30462671FFF7FCF818
:105E6C00A560204670BD00BF50760D004FF6FF7147
:105E7C000079FFF7C9B80079FFF7CEB80079FFF7C2
:105E8C00D3B80000054A0023995C814202D001334B
:105E9C00082BF9D1581CC0B2704700BF58760D00C2
:105EAC00400830B51860002418688842E5B206D95D
:105EBC000134082C02D040081860F5E70725024B86
:105ECC005B5D137030BD00BF58760D0070B588B0A7
:105EDC00067902FB01F504461422002103A800F008
:105EEC0073FF0B2303A930460022ADF80C30FFF7EB
:105EFC00C3F802AB0DF1070229460498FFF7D0FF57
:105F0C0020799DF80710FFF797F8029808B070BD3C
:105F1C0038B504460846A5684DB1FFF7B3FF01221A
:105F2C0025FA00F12046BDE83840FFF7CFBF2079B5
:105F3C00BDE83840FFF780B808B50079FFF784F862
:105F4C00C0B208BD0079FFF78FB80000044B0020E9
:105F5C004FF6FF72187058809A80FFF71DB900BF7A
:105F6C00C8E60320024B1A68024B1A60704700BF48
:105F7C0038E40320D0E6032010B40468246BA44654
:105F8C005DF8044B604703689B6C1847808E704724
:105F9C00028FC08E101A704713B502AB026803F85B
:105FAC00011DD46819460122A04702B010BD10B5DE
:105FBC0003681B690446984728B1E38EE26B591CB1
:105FCC00E186D05C10BD4FF0FF3010BD10B50368FA
:105FDC001B690446984718B1E38EE26BD05C10BD88
:105FEC004FF0FF3010BD704710B403460846DC6B11
:105FFC00D98E1A8F0368521ADB6821445DF8044B62
:10600C001847A0F11000FFF7EFBFF0B503688DB093
:10601C001C265B6A04460F461546984701233246F8
:10602C00002105A8029300F0CFFE8DF814603846CD
:10603C000A268DF81560FEF79FFF1122ADF81600A9
:10604C0002213046FEF7D8FF0028606124DB0422D1
:10605C00009202AB40F6FF71FEF7AEFFE0B995B1CE
:10606C000390ADF8100003A9E8B2FEF745FF98B90C
:10607C000623009341F20B0203AB40F6FF716069FB
:10608C00FEF79AFF40B91C2205A96069FEF78CFF48
:10609C0010B96564012004E0236820465B6A9847C8
:1060AC0000200DB0F0BD10B504464069002801DB9E
:1060BC00FEF78AFF4FF0FF3363610023E3862387EB
:1060CC0010BD38B5C36B0546C08E13B12C6C241AA9
:1060DC0000E01C46944228BF14462246184400F0A7
:1060EC0068FEEB8E2344EB86204638BD70B5036802
:1060FC001B6904460E461546984788B1236820460E
:10610C001B699847E38EE16B8542A8BF054619448D
:10611C002A46304600F04DFEE38E2B44E38601E028
:10612C004FF0FF35284670BD70B50446054B44F85A
:10613C00043B01F1200506460FCD0FC42B682370DC
:10614C00304670BDC4740D00F0B59446026889B039
:10615C00976A0A4A02921D1D8E4606460FCD03AC65
:10616C000FC42B682370BDF838300093624602AB25
:10617C0071463046B84709B0F0BD00BFC4740D007D
:10618C00F0B50368B0F836E09F6A0D4B89B000F1AA
:10619C002006044602930FCE03AD0FC533682B7057
:1061AC00A38E0093724602ABE16B2046B84723687E
:1061BC000546DB6920469847284609B0F0BD00BF6C
:1061CC00C4740D00F0B54378022B8DB005460C4617
:1061DC00174601D1011D33E00A2B35D111220021C4
:1061EC0001A800F0F1FDAB6843B9EB6833B94FF689
:1061FC00FF702E69FEF7B0FE86421FD005F1080332
:10620C0001AE05F1180E18685968324603C20833FE
:10621C0073451646F7D1062301A906A807AE8DF8DB
:10622C001430FFF751F90FCE04340FC433682370C8
:10623C0057B16888FEF798FE388005E005F1140127
:10624C002046FFF776F9F3E70DB0F0BD2DE9F041EC
:10625C008EB00EAB002506461746084643F8345D53
:10626C002A462946FEF798FE00281FDB019BFBB14E
:10627C005B69EBB102A8FFF719F9019B2A46586933
:10628C0002A9FFF79FFF02A8FFF730F980B133682E
:10629C0003ADD3F838800B4B08930FCD09AC0FC46A
:1062AC002B6823703A4608A93046C047044601E0E3
:1062BC004FF0FF340198FEF767FE20460EB0BDE8A4
:1062CC00F08100BFC4740D002DE9F047D0F81480A4
:1062DC00B8F1000F8CB005460C461746994600DB0A
:1062EC0011B94FF0FF3035E04FF01C0A05AE5246A5
:1062FC000021304600F068FDCDF808A0B9F1000F80
:10630C0014D04FF47A72B9FBF2F1039102FB1191A4
:10631C004A4308230492009341F2060203AB40F671
:10632C00FF714046FEF748FE08B113E0082002ABAF
:10633C0001932146034600963A466869FEF74CFEE7
:10634C00041E06DB05F1340205F11C013046FFF793
:10635C0039FF20460CB0BDE8F08738B50546144629
:10636C002B7D062B084611D11C2313700A23537066
:10637C00FEF702FE083424F8060C2B1D143553F8D6
:10638C00042B44F8042BAB42F9D138BD042B0AD1B1
:10639C001023137002235370FEF7EEFD60806868C3
:1063AC00FEF7DAFD606038BD2DE9F0438BB003AC2D
:1063BC001C25994606460F46904600212A46204643
:1063CC0000F002FD2246BDF848104846FFF7C5FF15
:1063DC009DF80D3043B18DE830000023424639461C
:1063EC007069FEF701FE01E04FF0FF300BB0BDE825
:1063FC00F083F0B591B00C4606460021154609A86D
:10640C001C221F4600F0E0FC09AA00212046FFF7E1
:10641C00A4FF9DF82530022B2ED1002305930A9B57
:10642C000493DDB102A92846FEF76EFDB0B910A9A0
:10643C0041F8340D0298FEF76FFD60B9039B53B120
:10644C00DA6812685178022903D152680AB10592B0
:10645C0001E01B68F3E70398FEF766FD002F4FF091
:10646C000803009318BF032204AB08BF04220021C9
:10647C003046FEF7A1FD1EE00A2B1AD104AC142203
:10648C000021204600F0A0FC0BAB0FCB002F84E8C2
:10649C000F004FF01403009318BF0C22234608BFC3
:1064AC000D22292130460895FEF786FD00EAE070A2
:1064BC0001E04FF0FF3011B0F0BD000038B54FF4E3
:1064CC007A7383600B4B03F108026C330025036174
:1064DC004FF0FF3304464560026043611C30FEF709
:1064EC00E5FF4FF40073E5862587E5632364656457
:1064FC00204638BD8C760D0010B590F84830044617
:10650C0023B1C06B10B1012100F0CFFA0023E3637B
:10651C0084F848302364E386238710BD70B50446A5
:10652C0016460D46FFF7E8FF0023E66323643EB9E9
:10653C0035B12846FDF7ABFD0123E06384F8483004
:10654C00E36B03B12564206C003018BF012070BDD3
:10655C00F8B51746C26B05460C461AB9016C09B161
:10656C00FFF7DCFF04340FCC05F120060FC62368BF
:10657C0033700023AF86EB862B87286CF8BD70B583
:10658C00C26B04460E461AB9016C09B1FFF7C6FF7F
:10659C00E16B0022E286228749B1226C3AB1236872
:1065AC0020461D6B3346A8470028C8BF20872368A8
:1065BC0020461B69BDE870401847000010B5074B1A
:1065CC0003F108026C33044602600361FFF76BFDB4
:1065DC002046FFF791FF204610BD00BF8C760D00C2
:1065EC0010B50446FFF7EAFF20464C2100F05DFA97
:1065FC00204610BD02464069002804DB012392F8B6
:10660C004420FFF7F6BE4FF0FF30704770474174DF
:10661C00704708B5007CFEF76FFD20EAE07008BDFE
:10662C0008B5007CFEF740FD20EAE07008BD08B517
:10663C00007CFEF749FD30EA200028BF4FF0FF3008
:10664C0008BD08B5007CFEF737FD30EA200028BFF6
:10665C004FF0FF3008BD007CFEF73EBD10B5142195
:10666C00044600F022FA204610BD70B5457C044665
:10667C000E4625B9007CFEF73FFD002805DD3146AE
:10668C00207CBDE87040FEF707BD284670BD0000B9
:10669C0010B5044608461146002262604FF47A7227
:1066AC00A260054A22600122207462741A46FEF729
:1066BC00EBFC204610BD00BF04770D00007CFEF7FC
:1066CC0013BD0000F8B5194C25684DB98420FDF7B1
:1066DC00DCFC064618B18422294600F075FB2660C6
:1066EC00134D2E684EB98420FDF7CFFC074618B128
:1066FC008422314600F068FB2F600E4F396811F090
:10670C00010611D13846FDF7D3FC68B122682B681D
:10671C0009483146FFF7BCFF3846FDF7CEFC074A67
:10672C000749054800F0BCF90348F8BDF0E6032022
:10673C00E8E60320ECE60320D4E60320A0E40320E3
:10674C0019660D0041747047704708B50021007C34
:10675C00FEF7FAFC30EA200028BF4FF0FF3008BDEE
:10676C0008B50121007CFEF7EFFC30EA200028BFC1
:10677C004FF0FF3008BD08B5007CFEF7DDFC20EAC9
:10678C00E07008BD08B5007CFEF7CEFC20EAE07096
:10679C0008BD007CFEF7E8BC10B51421044600F0DF
:1067AC0084F9204610BD38B50446007C0D46FEF732
:1067BC00C3FC002801DC607C28B12946207CFEF754
:1067CC00CBFC20EAE07038BD10B5044600236360B2
:1067DC004FF47A73A360054B2360012308462174A0
:1067EC0063741146FEF790FC204610BD34770D0003
:1067FC000022007CFEF790BC10B514220446002148
:10680C0000F0E2FA204610BD30B50E4D87B001A85D
:10681C00FFF7F2FF296811F0010410D12846FDF7AB
:10682C0047FC60B101AA21460748FFF7CDFF284677
:10683C00FDF743FC054A0649034800F031F90248CC
:10684C0007B030BDF4E60320F8E60320A0E40320F3
:10685C0055670D0008B50F4B33B1FFF7D5FF036833
:10686C001B69984700280DDC0B4B33B1FFF72AFF4F
:10687C0003681B699847002807DC084B43B1AFF34A
:10688C00008008BDAFF30080EEE7AFF30080F4E7C3
:10689C0008BD00BF00000000000000000000000068
:1068AC0008B5FFF7D7FFFEF7A7FA014B186008BD34
:1068BC0010E7032007B5002300931A466FF0770109
:1068CC00FEF784FC03B05DF804FB000007B54388B9
:1068DC000A2B08D0502B09D1094B1B683BB103B0D4
:1068EC005DF804EB1847FFF7E5FF06E00023009383
:1068FC001A466FF07701FEF769FC03B05DF804FBF4
:10690C000CE7032010B5FEF75FFA044600F064FABA
:10691C00074B13B12046AFF3008000210448FEF76B
:10692C0069FC00210348BDE81040FEF745BC00BFE0
:10693C0000000000D9680D0010B504460F48FFF7A1
:10694C0001FB28B1A4F10B03022B01D8002010BDD0
:10695C0000F064F8FEF76CFD08B1012CF6D9FFF7D6
:10696C00B1FEFFF7ABFE18B1A4F10903012BEDD971
:10697C001E2C8CBF0020012010BD00BF2CE7032073
:10698C001E2838B504460D460AD8FF2908D0FFF753
:10699C00D3FF28B129462046BDE83840FEF73CBA63
:1069AC0038BD38B504460D46FEF73EFAFF2810D028
:1069BC00062804D84D2323FA00F0C30709D4204637
:1069CC00FFF7BAFF28B129462046BDE83840FEF74C
:1069DC0033BA38BD2DE9F04190461E4607240746D0
:1069EC000D46B8F1000F04D1C4F1070146FA01F1CC
:1069FC0001E046FA04F101F001013846FFF7D1FF3E
:106A0C0001212846FFF7CDFF00212846FFF7C9FFDB
:106A1C0014F1FF34E5D2BDE8F081000038B50B4D20
:106A2C00296811F001040FD12846FDF741FB58B13C
:106A3C0021460748FEF7D6FC2846FDF73EFB054AE3
:106A4C000549034800F02CF8014838BD14E7032031
:106A5C0018E70320A0E4032099530D0070B50C4CEB
:106A6C000C4E0D4D00212046FFF7ECF920460B4C47
:106A7C003246294600F014F801212046FFF7E2F9CE
:106A8C00324629462046BDE8704000F009B800BFE8
:106A9C002CE70320A0E40320415E0D003CE703201B
:106AAC000B460146184600F067B9FDF7F2BA000034
:106ABC00024B1868BFF35F8F704700BF4CE7032091
:106ACC0010B5002814BF044601242046FEF7EAFB4B
:106ADC0020B9FFF7EDFF08B18047F6E710BDFFF7CF
:106AEC00EFBF08B5FEF7F6FB244B1A68D0075CBF66
:106AFC0001221A60224B1A68D1075CBF01221A606E
:106B0C00204B1A68D2075CBF01221A601E4B1A6810
:106B1C00D0075CBF01221A601C4B1A68D1075CBFFE
:106B2C0001221A601A4B1A68D2075CBF01221A6044
:106B3C00184B1A68D0075CBF01221A60164B1A68F2
:106B4C00D1075CBF01221A60144B1A68D2075CBFD4
:106B5C0001221A60124B1A68D0075CBF01221A601E
:106B6C00104B1A68D1075CBF01221A600E4B1A68D1
:106B7C00D2075CBF01221A60704700BF7CE703207C
:106B8C0078E7032074E7032070E703206CE7032009
:106B9C0068E7032064E7032060E703205CE7032039
:106BAC0058E7032054E7032050E70320184B1A68DA
:106BBC00D1075CBF01221A60164B1A68D2075CBF62
:106BCC0001221A60144B1A68D0075CBF01221A60AC
:106BDC00124B1A68D1075CBF01221A60104B1A685D
:106BEC00D2075CBF01221A600E4B1A68D0075CBF3B
:106BFC0001221A600C4B1A68D1075CBF01221A6083
:106C0C000A4B1A68D2075CBF01221A60704700BF9A
:106C1C009CE7032098E7032094E7032090E70320E8
:106C2C008CE7032088E7032084E7032080E7032018
:106C3C00184B1A68D1075CBF01221A60164B1A68F0
:106C4C00D2075CBF01221A60144B1A68D0075CBFD4
:106C5C0001221A60124B1A68D1075CBF01221A601C
:106C6C00104B1A68D2075CBF01221A600E4B1A68CF
:106C7C00D0075CBF01221A600C4B1A68D1075CBFAD
:106C8C0001221A600A4B1A68D2075CBF01221A60F3
:106C9C00704700BFBCE70320B8E70320B4E703202C
:106CAC00B0E70320ACE70320A8E70320A4E7032008
:106CBC00A0E70320244B1A68D0075CBF01221A609E
:106CCC00224B1A68D1075CBF01221A60204B1A684C
:106CDC00D2075CBF01221A601E4B1A68D0075CBF3A
:106CEC0001221A601C4B1A68D1075CBF01221A6082
:106CFC001A4B1A68D2075CBF01221A60184B1A682B
:106D0C00D0075CBF01221A60164B1A68D1075CBF12
:106D1C0001221A60144B1A68D2075CBF01221A6058
:106D2C00124B1A68D0075CBF01221A60104B1A680C
:106D3C00D1075CBF01221A600E4B1A68D2075CBFE8
:106D4C0001221A60704700BFECE70320E8E703203C
:106D5C00E4E70320E0E70320DCE70320D8E7032087
:106D6C00D4E70320D0E70320CCE70320C8E70320B7
:106D7C00C4E70320C0E7032010B5054C13462CB123
:106D8C000A4601460220AFF3008010BD204610BD1C
:106D9C000000000010B501390244904207D010F8F1
:106DAC00013B11F8014FA342F7D0181B10BD002076
:106DBC0010BD10B5431E0A44914204D011F8014B8A
:106DCC0003F8014FF8E710BD02440346934202D08A
:106DDC0003F8011BFAE7704738B5124B1C68A36B1C
:106DEC000546D3B91820FEF75DFA43F20E33A063C3
:106DFC0003804AF6CD33438041F2342383804EF234
:106E0C006D63C3804DF6EC630381052343810B2333
:106E1C00838101220023C0E90423A36B00221D619E
:106E2C005A6138BD9CE40320034613F8012B002A59
:106E3C00FBD1181A0138704730B582B1451E0139A3
:106E4C0015F8013F11F8014FA34206D1EC4314444D
:106E5C00E04201D0002BF3D11C46181B30BD10466C
:106E6C0030BD10B5034601448B4204D01A785C1C2B
:106E7C000AB12346F8E7181A10BD00001D400D009A
:106E8C0059400D0085400D0089400D0000000000A8
:106E9C004E554C4C006576656E743D2573206461CF
:106EAC0074613D2573004F77656C2E636F64657359
:106EBC0000546869732069732058656E6F6E206486
:106ECC0065766963652E2E2E004D657368004E65E0
:106EDC0074776F726B0036303030006967666F6C98
:106EEC006C6F7765727300000000000000000000FA
:106EFC000000000000000000AD450D00C55C0D0059
:106F0C00A9400D00AD420D00CD430D00E9430D002D
:106F1C006D430D0003440D003B440D0057440D0020
:106F2C0000000000003E5B4F5B3E3E6B4F6B3E1C17
:106F3C003E7C3E1C183C7E3C181C577D571C1C5E2E
:106F4C007F5E1C00183C1800FFE7C3E7FF00182405
:106F5C001800FFE7DBE7FF30483A060E26297929AF
:106F6C0026407F050507407F05253F5A3CE73C5AE4
:106F7C007F3E1C1C08081C1C3E7F14227F22145FC1
:106F8C005F005F5F06097F017F006689956A60601C
:106F9C0060606094A2FFA29408047E040810207E16
:106FAC00201008082A1C08081C2A08081E1010109B
:106FBC00100C1E0C1E0C30383E3830060E3E0E06E1
:106FCC00000000000000005F000000070007001434
:106FDC007F147F14242A7F2A1223130864623649F3
:106FEC005620500008070300001C224100004122DB
:106FFC001C002A1C7F1C2A08083E080800807030E0
:10700C00000808080808000060600020100804024E
:10701C003E5149453E00427F400072494949462154
:10702C0041494D331814127F1027454545393C4AC8
:10703C0049493141211109073649494936464949DF
:10704C00291E000014000000403400000008142227
:10705C004114141414140041221408020159090695
:10706C003E415D594E7C1211127C7F494949363E96
:10707C00414141227F4141413E7F494949417F097C
:10708C000909013E414151737F0808087F00417F87
:10709C0041002040413F017F081422417F40404085
:1070AC00407F021C027F7F0408107F3E4141413E1D
:1070BC007F090909063E4151215E7F09192946269F
:1070CC004949493203017F01033F4040403F1F20A3
:1070DC0040201F3F4038403F63140814630304787A
:1070EC0004036159494D43007F414141020408109A
:1070FC0020004141417F04020102044040404040D5
:10710C00000307080020545478407F284444383842
:10711C0044444428384444287F38545454180008B4
:10712C007E090218A4A49C787F0804047800447D8E
:10713C0040002040403D007F1028440000417F402B
:10714C00007C047804787C0804047838444444387F
:10715C00FC1824241818242418FC7C08040408485F
:10716C005454542404043F44243C4040207C1C20B0
:10717C0040201C3C4030403C44281028444C90900B
:10718C00907C4464544C4400083641000000770065
:10719C0000004136080002010204023C2623263C72
:1071AC001EA1A161123A4040207A385454555921FD
:1071BC0055557941215454784121555478402054E7
:1071CC005579400C1E527212395555555939545433
:1071DC00545939555454580000457C410002457DA2
:1071EC00420001457C40F0292429F0F0282528F0A4
:1071FC007C545545002054547C547C0A097F4932F8
:10720C00494949323248484832324A4848303A4172
:10721C0041217A3A42402078009DA0A07D39444417
:10722C0044393D4040403D3C24FF2424487E4943A2
:10723C00662B2FFC2F2BFF0929F620C0887E090313
:10724C0020545479410000447D413048484A32383A
:10725C004040227A007A0A0A727D0D19317D262966
:10726C00292F28262929292630484D40203808085E
:10727C00080808080808382F10C8ACBA2F10283492
:10728C00FA00007B000008142A142222142A140885
:10729C00AA005500AAAA55AA55AA000000FF001082
:1072AC001010FF00141414FF001010FF00FF10103A
:1072BC00F010F0141414FC001414F700FF0000FF7D
:1072CC0000FF1414F404FC141417101F10101F10DA
:1072DC001F1414141F00101010F0000000001F10D9
:1072EC001010101F10101010F010000000FF1010E4
:1072FC0010101010101010FF10000000FF140000F0
:10730C00FF00FF00001F10170000FC04F4141417FA
:10731C0010171414F404F40000FF00F714141414E0
:10732C00141414F700F7141414171410101F101F52
:10733C00141414F4141010F010F000001F101F009F
:10734C0000001F14000000FC140000F010F01010DE
:10735C00FF10FF141414FF141010101F0000000075
:10736C00F010FFFFFFFFFFF0F0F0F0F0FFFFFF0069
:10737C0000000000FFFF0F0F0F0F0F38444438447C
:10738C007C2A2A3E147E02020606027E027E0263DC
:10739C00554941633844443C04407E201E2006027B
:1073AC007E020299A5E7A5991C2A492A1C4C720158
:1073BC00724C304A4D4D303048784830BC625A4699
:1073CC003D3E494949007E0101017E2A2A2A2A2A8A
:1073DC0044445F444440514A444040444A51400074
:1073EC0000FF0103E080FF000008086B6B083612F9
:1073FC00362436060F090F0600001818000000107E
:10740C0010003040FF0101001F01011E00191D1763
:10741C0012003C3C3C3C000000000000000000005E
:10742C0000000000CD400D0071420D00AD450D0077
:10743C00C55C0D0051490D00AD420D00B5470D0066
:10744C0041460D006D430D0003440D003B440D00FF
:10745C0057440D00000000000000000079530D009F
:10746C006F530D0065530D005B530D004F530D0012
:10747C0043530D0037530D002F530D0025530D00B2
:10748C001B530D00E55B0D00000000000000000028
:10749C0099530D00E3530D00BB530D009B530D008E
:1074AC00C3530D00CB530D00D3530D00DB530D0014
:1074BC00000000000000000055540D0045540D0064
:1074CC0047540D00626175640053657269616C000C
:1074DC0053657269616C310074797065007061720A
:1074EC00616D00636D6400696400686E64007374A0
:1074FC00726D0066696C74006C766C006164644833
:10750C00616E646C65720072656D6F766548616E54
:10751C00646C657200656E756D48616E646C657245
:10752C0073004A534F4E53747265616D4C6F6748CC
:10753C00616E646C6572006170700025303130755D
:10754C0020005D20002C200028293A2000205B0020
:10755C00636F6465203D2000256900646574616972
:10756C006C73203D20000D0A0066006C6E00666E88
:10757C0000636F64650064657461696C006E6F6EA6
:10758C006500747261636500696E666F0077617285
:10759C006E006572726F720070616E696300616C6F
:1075AC006C0000000000000000000000F9550D0008
:1075BC00EF550D00E5550D00DB550D00CF550D00B9
:1075CC00C3550D00B7550D00AF550D00A5550D0059
:1075DC009B550D00E55B0D00666630333A3A313A47
:1075EC003130303100776972696E67007061727387
:1075FC0065207061636B65742025640074683100CC
:10760C006D6573687075620000000000000000007A
:10761C007D5B0D00875B0D00915B0D009B5B0D008E
:10762C00A55B0D00B15B0D00BD5B0D00C95B0D00D2
:10763C00D15B0D00DB5B0D00E55B0D000000000075
:10764C0000000000415E0D00435E0D0000081018A4
:10765C00202830385A00252B3033643A25303275C7
:10766C000025592D256D2D25645425483A254D3A74
:10767C002553257A0061736374696D650000000001
:10768C000000000000000000C9650D00ED650D0054
:10769C00A55F0D00CF600D009D5F0D00BB5F0D0061
:1076AC00D95F0D00F35F0D0017600D00B3600D0086
:1076BC00B5630D0055610D00D5620D00855F0D00A1
:1076CC005D650D0059620D008D610D008B650D001F
:1076DC00F9600D00935F0D0035610D00995F0D0091
:1076EC00F55F0D00F0FFFFFF000000000F600D00C4
:1076FC00000000000000000019660D0069660D0016
:10770C0077660D00C55C0D002D660D004F660D00F3
:10771C003B660D0063660D001B660D001F660D00B9
:10772C00000000000000000055670D00A5670D006B
:10773C00B3670D00C55C0D0091670D0057670D0018
:10774C006D670D009F670D0083670D0051670D007D
:10775C00000000000000000000000000000000001D
:10776C00000000000000000000000000000000000D
:10777C0000000000000000000000000000000000FD
:10778C0000000000000000000000000000000000ED
:10779C0000000000000000000000000000000000DD
:1077AC0000000000000000000000000000000000CD
:1077BC00000000004300000081420D003D460D001A
:1077CC00314D0D00F9520D0085530D005D550D0026
:1077DC002D5B0D00B15C0D00255E0D00595F0D0099
:1077EC00715F0D00696A0D00F56A0D00B96B0D0033
:1077FC003D6C0D00C16C0D0000000000000000008D
:04780C000000000078
:10781000000103070F1F3F7F0080C0E0F0F8FCFE6F
:107820000000000000000000000000000000000058
:107830000000000000000000000000000000000048
:107840000000000000000000000000000000000038
:1078500000000000000000000000000000000080A8
:107860008080000000000000000000000000000018
:10787000008080C0C0000000000000000000000088
:1078800000000000000000000000000000000000F8
:1078900000000000000000000000000000000000E8
:1078A00000000000000000000000000000000000D8
:1078B0000000000080C0E0F0F8FCF8E000000000EC
:1078C0000000000000000000000000000080808038
:1078D000808000808000000000808080808000FF29
:1078E000FFFF00000000808080800000808000009A
:1078F00080FFFF808000808000808080800080800A
:107900000000000000808000008C8E84000080F861
:10791000F8F88000000000000000000000000000F7
:10792000F0F0F0F0F0F0F0F0F0F0F0F0E0E0C08017
:1079300000E0FCFEFFFFFF7FFFFFFFFFFF000000F6
:107940000000000000000000000000FEFFC7010171
:10795000010183FFFF00007CFEC70101010183FFDD
:10796000FFFF0038FEC78301010183C7FFFF00004E
:1079700001FFFF010100FFFF0701010100007FFF80
:1079800080000000FFFF7F0000FFFFFF000001FFFD
:10799000FFFF0100000000000000000000000000E8
:1079A000030F3F7F7FFFFFFFFFFFFFFFE7C7C78F8B
:1079B0008F9FBFFFFFC3C0F0FFFFFFFFFFFCFCFC7A
:1079C000FCFCFCFCFCF8F8F0F0E0C0000103030351
:1079D000030301030300000000010303030301018B
:1079E000030100000001030303030101030300007E
:1079F000000303000000030300000000000000017A
:107A0000030303030301000000010301000000035E
:107A10000301000000000000000000000000000062
:107A200000000080C0E0F0F9FFFFFFFFFF3F1F0FE5
:107A300087C7F7FFFF1F1F3DFCF8F8F8F87C7DFFB4
:107A4000FFFFFFFFFFFFFF7F3F0F07003030000009
:107A50000000000000000000000000000000000026
:107A600000000000FEFEFC0000000000000000001E
:107A700000000000000000000000000000E0C00066
:107A80000000000000000000000030300000000096
:107A900000000000000000000000000000000000E6
:107AA00000C0FEFFFFFFFFFFFFFFFFFF7F7F3F1FC5
:107AB0000F071F7FFFFFF8F8FFFFFFFFFFFEF8E053
:107AC000000000010000000000000000FEFE0000B9
:107AD00000FCFEFC0C06060EFCF80000F0F81C0E84
:107AE0000606060CFFFFFF0000FEFE00000000FC83
:107AF000FEFC00183C7E66E6CE84000006FFFF0612
:107B000006FCFEFC0C0606060000FEFE0000C0F8A7
:107B1000FC4E4646464E7C7840183C76E6CECC80FD
:107B20000000000000000000000000000000000055
:107B30000000000001070F1F1F3F3F3F3F1F0F03C3
:107B40000000000000000000000000000F0F000017
:107B5000000F0F0F000000000F0F000003070E0CB6
:107B600018180C060F0F0F0000010F0E0C180C0F49
:107B7000070100040E0C180C0F070000000F0F0087
:107B8000000F0F0F0000000000000F0F00000007A3
:107B9000070C0C181C0C060600040E0C180C0F0722
:107BA00000000000000000000000000000000000D5
:107BB00000000000000000000000000000000000C5
:107BC00000000000000000000000000000000000B5
:107BD00000000000000000000000000000000000A5
:107BE0000000000000000000000000000000000095
:107BF0000000000000000000000000000000000085
:107C00000000000000000000000000000000000074
:107C10000000000000000000000000000000000064
:107C200081760D000000000060770D0080770D0068
:107C3000A0770D0000000000000000000000000020
:107C400000000000C0770D000000000000000000F0
:107C50000000000000000000000000000000000024
:107C60000000000000000000000000000000000014
:107C70000000000000000000000000000000000004
:087C8000000000003CE40320B9
:107C8800FFFFFFFF00000102030405060708090AB9
:107C98000B0C0D0E0F101112131415161718191AB4
:087CA8001B1C1D1E1F202800FB
:047CB00078563412BC
:04000003D000401CCD
:00000001FF
